{
  "contractName": "Xpoesys",
  "abi": [
    {
      "inputs": [],
      "stateMutability": "nonpayable",
      "type": "constructor"
    },
    {
      "anonymous": false,
      "inputs": [
        {
          "indexed": true,
          "internalType": "address",
          "name": "owner",
          "type": "address"
        },
        {
          "indexed": true,
          "internalType": "address",
          "name": "approved",
          "type": "address"
        },
        {
          "indexed": true,
          "internalType": "uint256",
          "name": "tokenId",
          "type": "uint256"
        }
      ],
      "name": "Approval",
      "type": "event"
    },
    {
      "anonymous": false,
      "inputs": [
        {
          "indexed": true,
          "internalType": "address",
          "name": "owner",
          "type": "address"
        },
        {
          "indexed": true,
          "internalType": "address",
          "name": "operator",
          "type": "address"
        },
        {
          "indexed": false,
          "internalType": "bool",
          "name": "approved",
          "type": "bool"
        }
      ],
      "name": "ApprovalForAll",
      "type": "event"
    },
    {
      "anonymous": false,
      "inputs": [
        {
          "indexed": true,
          "internalType": "address",
          "name": "from",
          "type": "address"
        },
        {
          "indexed": true,
          "internalType": "address",
          "name": "to",
          "type": "address"
        },
        {
          "indexed": true,
          "internalType": "uint256",
          "name": "tokenId",
          "type": "uint256"
        }
      ],
      "name": "Transfer",
      "type": "event"
    },
    {
      "inputs": [
        {
          "internalType": "uint256",
          "name": "",
          "type": "uint256"
        }
      ],
      "name": "allXpoesy",
      "outputs": [
        {
          "internalType": "uint256",
          "name": "tokenId",
          "type": "uint256"
        },
        {
          "internalType": "string",
          "name": "tokenName",
          "type": "string"
        },
        {
          "internalType": "string",
          "name": "tokenURI",
          "type": "string"
        },
        {
          "internalType": "address payable",
          "name": "mintedBy",
          "type": "address"
        },
        {
          "internalType": "address payable",
          "name": "currentOwner",
          "type": "address"
        },
        {
          "internalType": "uint256",
          "name": "price",
          "type": "uint256"
        },
        {
          "internalType": "uint256",
          "name": "numberOfTransfers",
          "type": "uint256"
        },
        {
          "internalType": "bool",
          "name": "forsale",
          "type": "bool"
        }
      ],
      "stateMutability": "view",
      "type": "function",
      "constant": true
    },
    {
      "inputs": [
        {
          "internalType": "address",
          "name": "to",
          "type": "address"
        },
        {
          "internalType": "uint256",
          "name": "tokenId",
          "type": "uint256"
        }
      ],
      "name": "approve",
      "outputs": [],
      "stateMutability": "nonpayable",
      "type": "function"
    },
    {
      "inputs": [
        {
          "internalType": "address",
          "name": "owner",
          "type": "address"
        }
      ],
      "name": "balanceOf",
      "outputs": [
        {
          "internalType": "uint256",
          "name": "",
          "type": "uint256"
        }
      ],
      "stateMutability": "view",
      "type": "function",
      "constant": true
    },
    {
      "inputs": [],
      "name": "baseURI",
      "outputs": [
        {
          "internalType": "string",
          "name": "",
          "type": "string"
        }
      ],
      "stateMutability": "view",
      "type": "function",
      "constant": true
    },
    {
      "inputs": [],
      "name": "collectionName",
      "outputs": [
        {
          "internalType": "string",
          "name": "",
          "type": "string"
        }
      ],
      "stateMutability": "view",
      "type": "function",
      "constant": true
    },
    {
      "inputs": [],
      "name": "collectionNameSymbol",
      "outputs": [
        {
          "internalType": "string",
          "name": "",
          "type": "string"
        }
      ],
      "stateMutability": "view",
      "type": "function",
      "constant": true
    },
    {
      "inputs": [
        {
          "internalType": "uint256",
          "name": "tokenId",
          "type": "uint256"
        }
      ],
      "name": "getApproved",
      "outputs": [
        {
          "internalType": "address",
          "name": "",
          "type": "address"
        }
      ],
      "stateMutability": "view",
      "type": "function",
      "constant": true
    },
    {
      "inputs": [
        {
          "internalType": "address",
          "name": "owner",
          "type": "address"
        },
        {
          "internalType": "address",
          "name": "operator",
          "type": "address"
        }
      ],
      "name": "isApprovedForAll",
      "outputs": [
        {
          "internalType": "bool",
          "name": "",
          "type": "bool"
        }
      ],
      "stateMutability": "view",
      "type": "function",
      "constant": true
    },
    {
      "inputs": [],
      "name": "name",
      "outputs": [
        {
          "internalType": "string",
          "name": "",
          "type": "string"
        }
      ],
      "stateMutability": "view",
      "type": "function",
      "constant": true
    },
    {
      "inputs": [
        {
          "internalType": "uint256",
          "name": "tokenId",
          "type": "uint256"
        }
      ],
      "name": "ownerOf",
      "outputs": [
        {
          "internalType": "address",
          "name": "",
          "type": "address"
        }
      ],
      "stateMutability": "view",
      "type": "function",
      "constant": true
    },
    {
      "inputs": [
        {
          "internalType": "address",
          "name": "from",
          "type": "address"
        },
        {
          "internalType": "address",
          "name": "to",
          "type": "address"
        },
        {
          "internalType": "uint256",
          "name": "tokenId",
          "type": "uint256"
        }
      ],
      "name": "safeTransferFrom",
      "outputs": [],
      "stateMutability": "nonpayable",
      "type": "function"
    },
    {
      "inputs": [
        {
          "internalType": "address",
          "name": "from",
          "type": "address"
        },
        {
          "internalType": "address",
          "name": "to",
          "type": "address"
        },
        {
          "internalType": "uint256",
          "name": "tokenId",
          "type": "uint256"
        },
        {
          "internalType": "bytes",
          "name": "_data",
          "type": "bytes"
        }
      ],
      "name": "safeTransferFrom",
      "outputs": [],
      "stateMutability": "nonpayable",
      "type": "function"
    },
    {
      "inputs": [
        {
          "internalType": "address",
          "name": "operator",
          "type": "address"
        },
        {
          "internalType": "bool",
          "name": "approved",
          "type": "bool"
        }
      ],
      "name": "setApprovalForAll",
      "outputs": [],
      "stateMutability": "nonpayable",
      "type": "function"
    },
    {
      "inputs": [
        {
          "internalType": "bytes4",
          "name": "interfaceId",
          "type": "bytes4"
        }
      ],
      "name": "supportsInterface",
      "outputs": [
        {
          "internalType": "bool",
          "name": "",
          "type": "bool"
        }
      ],
      "stateMutability": "view",
      "type": "function",
      "constant": true
    },
    {
      "inputs": [],
      "name": "symbol",
      "outputs": [
        {
          "internalType": "string",
          "name": "",
          "type": "string"
        }
      ],
      "stateMutability": "view",
      "type": "function",
      "constant": true
    },
    {
      "inputs": [
        {
          "internalType": "uint256",
          "name": "index",
          "type": "uint256"
        }
      ],
      "name": "tokenByIndex",
      "outputs": [
        {
          "internalType": "uint256",
          "name": "",
          "type": "uint256"
        }
      ],
      "stateMutability": "view",
      "type": "function",
      "constant": true
    },
    {
      "inputs": [
        {
          "internalType": "string",
          "name": "",
          "type": "string"
        }
      ],
      "name": "tokenNameExists",
      "outputs": [
        {
          "internalType": "bool",
          "name": "",
          "type": "bool"
        }
      ],
      "stateMutability": "view",
      "type": "function",
      "constant": true
    },
    {
      "inputs": [
        {
          "internalType": "address",
          "name": "owner",
          "type": "address"
        },
        {
          "internalType": "uint256",
          "name": "index",
          "type": "uint256"
        }
      ],
      "name": "tokenOfOwnerByIndex",
      "outputs": [
        {
          "internalType": "uint256",
          "name": "",
          "type": "uint256"
        }
      ],
      "stateMutability": "view",
      "type": "function",
      "constant": true
    },
    {
      "inputs": [
        {
          "internalType": "uint256",
          "name": "tokenId",
          "type": "uint256"
        }
      ],
      "name": "tokenURI",
      "outputs": [
        {
          "internalType": "string",
          "name": "",
          "type": "string"
        }
      ],
      "stateMutability": "view",
      "type": "function",
      "constant": true
    },
    {
      "inputs": [
        {
          "internalType": "string",
          "name": "",
          "type": "string"
        }
      ],
      "name": "tokenURIExists",
      "outputs": [
        {
          "internalType": "bool",
          "name": "",
          "type": "bool"
        }
      ],
      "stateMutability": "view",
      "type": "function",
      "constant": true
    },
    {
      "inputs": [],
      "name": "totalSupply",
      "outputs": [
        {
          "internalType": "uint256",
          "name": "",
          "type": "uint256"
        }
      ],
      "stateMutability": "view",
      "type": "function",
      "constant": true
    },
    {
      "inputs": [
        {
          "internalType": "address",
          "name": "from",
          "type": "address"
        },
        {
          "internalType": "address",
          "name": "to",
          "type": "address"
        },
        {
          "internalType": "uint256",
          "name": "tokenId",
          "type": "uint256"
        }
      ],
      "name": "transferFrom",
      "outputs": [],
      "stateMutability": "nonpayable",
      "type": "function"
    },
    {
      "inputs": [],
      "name": "xpCounter",
      "outputs": [
        {
          "internalType": "uint256",
          "name": "",
          "type": "uint256"
        }
      ],
      "stateMutability": "view",
      "type": "function",
      "constant": true
    },
    {
      "inputs": [
        {
          "internalType": "string",
          "name": "_name",
          "type": "string"
        },
        {
          "internalType": "string",
          "name": "_tokenURI",
          "type": "string"
        },
        {
          "internalType": "uint256",
          "name": "_price",
          "type": "uint256"
        }
      ],
      "name": "mintXpoesy",
      "outputs": [],
      "stateMutability": "nonpayable",
      "type": "function"
    },
    {
      "inputs": [
        {
          "internalType": "uint256",
          "name": "_tokenId",
          "type": "uint256"
        }
      ],
      "name": "getTokenOwner",
      "outputs": [
        {
          "internalType": "address",
          "name": "",
          "type": "address"
        }
      ],
      "stateMutability": "view",
      "type": "function",
      "constant": true
    },
    {
      "inputs": [
        {
          "internalType": "uint256",
          "name": "_tokenId",
          "type": "uint256"
        }
      ],
      "name": "getTokenMetaData",
      "outputs": [
        {
          "internalType": "string",
          "name": "",
          "type": "string"
        }
      ],
      "stateMutability": "view",
      "type": "function",
      "constant": true
    },
    {
      "inputs": [],
      "name": "getNumberOfTokenMinted",
      "outputs": [
        {
          "internalType": "uint256",
          "name": "",
          "type": "uint256"
        }
      ],
      "stateMutability": "view",
      "type": "function",
      "constant": true
    },
    {
      "inputs": [
        {
          "internalType": "uint256",
          "name": "_tokenId",
          "type": "uint256"
        }
      ],
      "name": "getTokenExists",
      "outputs": [
        {
          "internalType": "bool",
          "name": "",
          "type": "bool"
        }
      ],
      "stateMutability": "view",
      "type": "function",
      "constant": true
    },
    {
      "inputs": [
        {
          "internalType": "uint256",
          "name": "_tokenId",
          "type": "uint256"
        }
      ],
      "name": "buyToken",
      "outputs": [],
      "stateMutability": "payable",
      "type": "function",
      "payable": true
    },
    {
      "inputs": [
        {
          "internalType": "uint256",
          "name": "_tokenId",
          "type": "uint256"
        },
        {
          "internalType": "uint256",
          "name": "_newPrice",
          "type": "uint256"
        }
      ],
      "name": "changeTokenPrice",
      "outputs": [],
      "stateMutability": "nonpayable",
      "type": "function"
    },
    {
      "inputs": [
        {
          "internalType": "uint256",
          "name": "_tokenId",
          "type": "uint256"
        }
      ],
      "name": "toggleForSale",
      "outputs": [],
      "stateMutability": "nonpayable",
      "type": "function"
    }
  ],
  "bytecode": "0x60806040523480156200001157600080fd5b506040518060400160405280600681526020017f58706f65737900000000000000000000000000000000000000000000000000008152506040518060400160405280600281526020017f5850000000000000000000000000000000000000000000000000000000000000815250620000966301ffc9a760e01b6200016860201b60201c565b8160069080519060200190620000ae929190620003bd565b508060079080519060200190620000c7929190620003bd565b50620000e06380ac58cd60e01b6200016860201b60201c565b620000f8635b5e139f60e01b6200016860201b60201c565b6200011063780e9d6360e01b6200016860201b60201c565b5050620001226200027160201b60201c565b600a908051906020019062000139929190620003bd565b506200014a6200031760201b60201c565b600b908051906020019062000161929190620003bd565b5062000473565b63ffffffff60e01b817bffffffffffffffffffffffffffffffffffffffffffffffffffffffff1916141562000205576040517f08c379a000000000000000000000000000000000000000000000000000000000815260040180806020018281038252601c8152602001807f4552433136353a20696e76616c696420696e746572666163652069640000000081525060200191505060405180910390fd5b6001600080837bffffffffffffffffffffffffffffffffffffffffffffffffffffffff19167bffffffffffffffffffffffffffffffffffffffffffffffffffffffff1916815260200190815260200160002060006101000a81548160ff02191690831515021790555050565b606060068054600181600116156101000203166002900480601f0160208091040260200160405190810160405280929190818152602001828054600181600116156101000203166002900480156200030d5780601f10620002e1576101008083540402835291602001916200030d565b820191906000526020600020905b815481529060010190602001808311620002ef57829003601f168201915b5050505050905090565b606060078054600181600116156101000203166002900480601f016020809104026020016040519081016040528092919081815260200182805460018160011615610100020316600290048015620003b35780601f106200038757610100808354040283529160200191620003b3565b820191906000526020600020905b8154815290600101906020018083116200039557829003601f168201915b5050505050905090565b828054600181600116156101000203166002900490600052602060002090601f016020900481019282620003f5576000855562000441565b82601f106200041057805160ff191683800117855562000441565b8280016001018555821562000441579182015b828111156200044057825182559160200191906001019062000423565b5b50905062000450919062000454565b5090565b5b808211156200046f57600081600090555060010162000455565b5090565b6145bb80620004836000396000f3fe6080604052600436106101d85760003560e01c806367c623cf11610102578063a46b1fac11610095578063c87b56dd11610064578063c87b56dd14610728578063e307260214610765578063e5326ab11461078e578063e985e9c5146107b9576101d8565b8063a46b1fac1461065a578063a5cd761f14610697578063ab3c1761146106d4578063b88d4fde146106ff576101d8565b806376badeed116100d157806376badeed1461059957806395d89b41146105dd578063a22cb46514610608578063a32018b914610631576101d8565b806367c623cf146104c95780636c0360eb146105065780636f9507f91461053157806370a082311461055c576101d8565b806323b872dd1161017a57806343d32ae71161014957806343d32ae7146103e95780634f6ccce71461042657806362e8e8ac146104635780636352211e1461048c576101d8565b806323b872dd1461033e5780632d296bf1146103675780632f745c591461038357806342842e0e146103c0576101d8565b8063095ea7b3116101b6578063095ea7b314610282578063142687f3146102ab578063144e8acb146102e857806318160ddd14610313576101d8565b806301ffc9a7146101dd57806306fdde031461021a578063081812fc14610245575b600080fd5b3480156101e957600080fd5b5061020460048036038101906101ff9190613e13565b6107f6565b6040516102119190614039565b60405180910390f35b34801561022657600080fd5b5061022f61085d565b60405161023c9190614054565b60405180910390f35b34801561025157600080fd5b5061026c60048036038101906102679190613efc565b6108ff565b604051610279919061401e565b60405180910390f35b34801561028e57600080fd5b506102a960048036038101906102a49190613dd7565b61099a565b005b3480156102b757600080fd5b506102d260048036038101906102cd9190613efc565b610ade565b6040516102df9190614039565b60405180910390f35b3480156102f457600080fd5b506102fd610af5565b60405161030a9190614076565b60405180910390f35b34801561031f57600080fd5b50610328610afb565b6040516103359190614076565b60405180910390f35b34801561034a57600080fd5b5061036560048036038101906103609190613cd1565b610b0c565b005b610381600480360381019061037c9190613efc565b610b82565b005b34801561038f57600080fd5b506103aa60048036038101906103a59190613dd7565b611080565b6040516103b79190614076565b60405180910390f35b3480156103cc57600080fd5b506103e760048036038101906103e29190613cd1565b6110db565b005b3480156103f557600080fd5b50610410600480360381019061040b9190613e3c565b6110fb565b60405161041d9190614039565b60405180910390f35b34801561043257600080fd5b5061044d60048036038101906104489190613efc565b611131565b60405161045a9190614076565b60405180910390f35b34801561046f57600080fd5b5061048a60048036038101906104859190613f25565b611154565b005b34801561049857600080fd5b506104b360048036038101906104ae9190613efc565b61155e565b6040516104c0919061401e565b60405180910390f35b3480156104d557600080fd5b506104f060048036038101906104eb9190613efc565b611595565b6040516104fd9190614054565b60405180910390f35b34801561051257600080fd5b5061051b6115ad565b6040516105289190614054565b60405180910390f35b34801561053d57600080fd5b5061054661164f565b6040516105539190614054565b60405180910390f35b34801561056857600080fd5b50610583600480360381019061057e9190613c6c565b6116ed565b6040516105909190614076565b60405180910390f35b3480156105a557600080fd5b506105c060048036038101906105bb9190613efc565b6117c2565b6040516105d4989796959493929190614091565b60405180910390f35b3480156105e957600080fd5b506105f2611987565b6040516105ff9190614054565b60405180910390f35b34801561061457600080fd5b5061062f600480360381019061062a9190613d9b565b611a29565b005b34801561063d57600080fd5b5061065860048036038101906106539190613efc565b611bdf565b005b34801561066657600080fd5b50610681600480360381019061067c9190613e3c565b612010565b60405161068e9190614039565b60405180910390f35b3480156106a357600080fd5b506106be60048036038101906106b99190613efc565b612046565b6040516106cb919061401e565b60405180910390f35b3480156106e057600080fd5b506106e961205d565b6040516106f69190614076565b60405180910390f35b34801561070b57600080fd5b5061072660048036038101906107219190613d20565b612071565b005b34801561073457600080fd5b5061074f600480360381019061074a9190613efc565b6120e9565b60405161075c9190614054565b60405180910390f35b34801561077157600080fd5b5061078c60048036038101906107879190613e7d565b6123ba565b005b34801561079a57600080fd5b506107a36126a2565b6040516107b09190614054565b60405180910390f35b3480156107c557600080fd5b506107e060048036038101906107db9190613c95565b612740565b6040516107ed9190614039565b60405180910390f35b6000806000837bffffffffffffffffffffffffffffffffffffffffffffffffffffffff19167bffffffffffffffffffffffffffffffffffffffffffffffffffffffff1916815260200190815260200160002060009054906101000a900460ff169050919050565b606060068054600181600116156101000203166002900480601f0160208091040260200160405190810160405280929190818152602001828054600181600116156101000203166002900480156108f55780601f106108ca576101008083540402835291602001916108f5565b820191906000526020600020905b8154815290600101906020018083116108d857829003601f168201915b5050505050905090565b600061090a826127d4565b61095f576040517f08c379a000000000000000000000000000000000000000000000000000000000815260040180806020018281038252602c815260200180614484602c913960400191505060405180910390fd5b6004600083815260200190815260200160002060009054906101000a900473ffffffffffffffffffffffffffffffffffffffff169050919050565b60006109a58261155e565b90508073ffffffffffffffffffffffffffffffffffffffff168373ffffffffffffffffffffffffffffffffffffffff161415610a2c576040517f08c379a00000000000000000000000000000000000000000000000000000000081526004018080602001828103825260218152602001806145346021913960400191505060405180910390fd5b8073ffffffffffffffffffffffffffffffffffffffff16610a4b6127f1565b73ffffffffffffffffffffffffffffffffffffffff161480610a7a5750610a7981610a746127f1565b612740565b5b610acf576040517f08c379a00000000000000000000000000000000000000000000000000000000081526004018080602001828103825260388152602001806143d76038913960400191505060405180910390fd5b610ad983836127f9565b505050565b600080610aea836127d4565b905080915050919050565b600c5481565b6000610b0760026128b2565b905090565b610b1d610b176127f1565b826128c7565b610b72576040517f08c379a00000000000000000000000000000000000000000000000000000000081526004018080602001828103825260318152602001806145556031913960400191505060405180910390fd5b610b7d8383836129bb565b505050565b600073ffffffffffffffffffffffffffffffffffffffff163373ffffffffffffffffffffffffffffffffffffffff161415610bbc57600080fd5b610bc5816127d4565b610bce57600080fd5b6000610bd98261155e565b9050600073ffffffffffffffffffffffffffffffffffffffff168173ffffffffffffffffffffffffffffffffffffffff161415610c1557600080fd5b3373ffffffffffffffffffffffffffffffffffffffff168173ffffffffffffffffffffffffffffffffffffffff161415610c4e57600080fd5b6000600d60008481526020019081526020016000206040518061010001604052908160008201548152602001600182018054600181600116156101000203166002900480601f016020809104026020016040519081016040528092919081815260200182805460018160011615610100020316600290048015610d125780601f10610ce757610100808354040283529160200191610d12565b820191906000526020600020905b815481529060010190602001808311610cf557829003601f168201915b50505050508152602001600282018054600181600116156101000203166002900480601f016020809104026020016040519081016040528092919081815260200182805460018160011615610100020316600290048015610db45780601f10610d8957610100808354040283529160200191610db4565b820191906000526020600020905b815481529060010190602001808311610d9757829003601f168201915b505050505081526020016003820160009054906101000a900473ffffffffffffffffffffffffffffffffffffffff1673ffffffffffffffffffffffffffffffffffffffff1673ffffffffffffffffffffffffffffffffffffffff1681526020016004820160009054906101000a900473ffffffffffffffffffffffffffffffffffffffff1673ffffffffffffffffffffffffffffffffffffffff1673ffffffffffffffffffffffffffffffffffffffff16815260200160058201548152602001600682015481526020016007820160009054906101000a900460ff16151515158152505090508060a00151341015610eab57600080fd5b8060e00151610eb957600080fd5b610ec48233856129bb565b6000816080015190508073ffffffffffffffffffffffffffffffffffffffff166108fc349081150290604051600060405180830381858888f19350505050158015610f13573d6000803e3d6000fd5b5033826080019073ffffffffffffffffffffffffffffffffffffffff16908173ffffffffffffffffffffffffffffffffffffffff168152505060018260c001818151019150818152505081600d6000868152602001908152602001600020600082015181600001556020820151816001019080519060200190610f97929190613a9d565b506040820151816002019080519060200190610fb4929190613a9d565b5060608201518160030160006101000a81548173ffffffffffffffffffffffffffffffffffffffff021916908373ffffffffffffffffffffffffffffffffffffffff16021790555060808201518160040160006101000a81548173ffffffffffffffffffffffffffffffffffffffff021916908373ffffffffffffffffffffffffffffffffffffffff16021790555060a0820151816005015560c0820151816006015560e08201518160070160006101000a81548160ff02191690831515021790555090505050505050565b60006110d382600160008673ffffffffffffffffffffffffffffffffffffffff1673ffffffffffffffffffffffffffffffffffffffff168152602001908152602001600020612bfe90919063ffffffff16565b905092915050565b6110f683838360405180602001604052806000815250612071565b505050565b600f818051602081018201805184825260208301602085012081835280955050505050506000915054906101000a900460ff1681565b600080611148836002612c1890919063ffffffff16565b50905080915050919050565b600073ffffffffffffffffffffffffffffffffffffffff163373ffffffffffffffffffffffffffffffffffffffff16141561118e57600080fd5b611197826127d4565b6111a057600080fd5b60006111ab8361155e565b90508073ffffffffffffffffffffffffffffffffffffffff163373ffffffffffffffffffffffffffffffffffffffff16146111e557600080fd5b6000600d60008581526020019081526020016000206040518061010001604052908160008201548152602001600182018054600181600116156101000203166002900480601f0160208091040260200160405190810160405280929190818152602001828054600181600116156101000203166002900480156112a95780601f1061127e576101008083540402835291602001916112a9565b820191906000526020600020905b81548152906001019060200180831161128c57829003601f168201915b50505050508152602001600282018054600181600116156101000203166002900480601f01602080910402602001604051908101604052809291908181526020018280546001816001161561010002031660029004801561134b5780601f106113205761010080835404028352916020019161134b565b820191906000526020600020905b81548152906001019060200180831161132e57829003601f168201915b505050505081526020016003820160009054906101000a900473ffffffffffffffffffffffffffffffffffffffff1673ffffffffffffffffffffffffffffffffffffffff1673ffffffffffffffffffffffffffffffffffffffff1681526020016004820160009054906101000a900473ffffffffffffffffffffffffffffffffffffffff1673ffffffffffffffffffffffffffffffffffffffff1673ffffffffffffffffffffffffffffffffffffffff16815260200160058201548152602001600682015481526020016007820160009054906101000a900460ff1615151515815250509050828160a001818152505080600d6000868152602001908152602001600020600082015181600001556020820151816001019080519060200190611475929190613a9d565b506040820151816002019080519060200190611492929190613a9d565b5060608201518160030160006101000a81548173ffffffffffffffffffffffffffffffffffffffff021916908373ffffffffffffffffffffffffffffffffffffffff16021790555060808201518160040160006101000a81548173ffffffffffffffffffffffffffffffffffffffff021916908373ffffffffffffffffffffffffffffffffffffffff16021790555060a0820151816005015560c0820151816006015560e08201518160070160006101000a81548160ff02191690831515021790555090505050505050565b600061158e82604051806060016040528060298152602001614439602991396002612c449092919063ffffffff16565b9050919050565b606060006115a2836120e9565b905080915050919050565b606060098054600181600116156101000203166002900480601f0160208091040260200160405190810160405280929190818152602001828054600181600116156101000203166002900480156116455780601f1061161a57610100808354040283529160200191611645565b820191906000526020600020905b81548152906001019060200180831161162857829003601f168201915b5050505050905090565b600b8054600181600116156101000203166002900480601f0160208091040260200160405190810160405280929190818152602001828054600181600116156101000203166002900480156116e55780601f106116ba576101008083540402835291602001916116e5565b820191906000526020600020905b8154815290600101906020018083116116c857829003601f168201915b505050505081565b60008073ffffffffffffffffffffffffffffffffffffffff168273ffffffffffffffffffffffffffffffffffffffff161415611774576040517f08c379a000000000000000000000000000000000000000000000000000000000815260040180806020018281038252602a81526020018061440f602a913960400191505060405180910390fd5b6117bb600160008473ffffffffffffffffffffffffffffffffffffffff1673ffffffffffffffffffffffffffffffffffffffff168152602001908152602001600020612c63565b9050919050565b600d602052806000526040600020600091509050806000015490806001018054600181600116156101000203166002900480601f0160208091040260200160405190810160405280929190818152602001828054600181600116156101000203166002900480156118745780601f1061184957610100808354040283529160200191611874565b820191906000526020600020905b81548152906001019060200180831161185757829003601f168201915b505050505090806002018054600181600116156101000203166002900480601f0160208091040260200160405190810160405280929190818152602001828054600181600116156101000203166002900480156119125780601f106118e757610100808354040283529160200191611912565b820191906000526020600020905b8154815290600101906020018083116118f557829003601f168201915b5050505050908060030160009054906101000a900473ffffffffffffffffffffffffffffffffffffffff16908060040160009054906101000a900473ffffffffffffffffffffffffffffffffffffffff16908060050154908060060154908060070160009054906101000a900460ff16905088565b606060078054600181600116156101000203166002900480601f016020809104026020016040519081016040528092919081815260200182805460018160011615610100020316600290048015611a1f5780601f106119f457610100808354040283529160200191611a1f565b820191906000526020600020905b815481529060010190602001808311611a0257829003601f168201915b5050505050905090565b611a316127f1565b73ffffffffffffffffffffffffffffffffffffffff168273ffffffffffffffffffffffffffffffffffffffff161415611ad2576040517f08c379a00000000000000000000000000000000000000000000000000000000081526004018080602001828103825260198152602001807f4552433732313a20617070726f766520746f2063616c6c65720000000000000081525060200191505060405180910390fd5b8060056000611adf6127f1565b73ffffffffffffffffffffffffffffffffffffffff1673ffffffffffffffffffffffffffffffffffffffff16815260200190815260200160002060008473ffffffffffffffffffffffffffffffffffffffff1673ffffffffffffffffffffffffffffffffffffffff16815260200190815260200160002060006101000a81548160ff0219169083151502179055508173ffffffffffffffffffffffffffffffffffffffff16611b8c6127f1565b73ffffffffffffffffffffffffffffffffffffffff167f17307eab39ab6107e8899845ad3d59bd9653f200f220920489ca2b5937696c318360405180821515815260200191505060405180910390a35050565b600073ffffffffffffffffffffffffffffffffffffffff163373ffffffffffffffffffffffffffffffffffffffff161415611c1957600080fd5b611c22816127d4565b611c2b57600080fd5b6000611c368261155e565b90508073ffffffffffffffffffffffffffffffffffffffff163373ffffffffffffffffffffffffffffffffffffffff1614611c7057600080fd5b6000600d60008481526020019081526020016000206040518061010001604052908160008201548152602001600182018054600181600116156101000203166002900480601f016020809104026020016040519081016040528092919081815260200182805460018160011615610100020316600290048015611d345780601f10611d0957610100808354040283529160200191611d34565b820191906000526020600020905b815481529060010190602001808311611d1757829003601f168201915b50505050508152602001600282018054600181600116156101000203166002900480601f016020809104026020016040519081016040528092919081815260200182805460018160011615610100020316600290048015611dd65780601f10611dab57610100808354040283529160200191611dd6565b820191906000526020600020905b815481529060010190602001808311611db957829003601f168201915b505050505081526020016003820160009054906101000a900473ffffffffffffffffffffffffffffffffffffffff1673ffffffffffffffffffffffffffffffffffffffff1673ffffffffffffffffffffffffffffffffffffffff1681526020016004820160009054906101000a900473ffffffffffffffffffffffffffffffffffffffff1673ffffffffffffffffffffffffffffffffffffffff1673ffffffffffffffffffffffffffffffffffffffff16815260200160058201548152602001600682015481526020016007820160009054906101000a900460ff16151515158152505090508060e0015115611edc5760008160e0019015159081151581525050611eee565b60018160e00190151590811515815250505b80600d6000858152602001908152602001600020600082015181600001556020820151816001019080519060200190611f28929190613a9d565b506040820151816002019080519060200190611f45929190613a9d565b5060608201518160030160006101000a81548173ffffffffffffffffffffffffffffffffffffffff021916908373ffffffffffffffffffffffffffffffffffffffff16021790555060808201518160040160006101000a81548173ffffffffffffffffffffffffffffffffffffffff021916908373ffffffffffffffffffffffffffffffffffffffff16021790555060a0820151816005015560c0820151816006015560e08201518160070160006101000a81548160ff021916908315150217905550905050505050565b600e818051602081018201805184825260208301602085012081835280955050505050506000915054906101000a900460ff1681565b6000806120528361155e565b905080915050919050565b600080612068610afb565b90508091505090565b61208261207c6127f1565b836128c7565b6120d7576040517f08c379a00000000000000000000000000000000000000000000000000000000081526004018080602001828103825260318152602001806145556031913960400191505060405180910390fd5b6120e384848484612c78565b50505050565b60606120f4826127d4565b612149576040517f08c379a000000000000000000000000000000000000000000000000000000000815260040180806020018281038252602f815260200180614505602f913960400191505060405180910390fd5b6000600860008481526020019081526020016000208054600181600116156101000203166002900480601f0160208091040260200160405190810160405280929190818152602001828054600181600116156101000203166002900480156121f25780601f106121c7576101008083540402835291602001916121f2565b820191906000526020600020905b8154815290600101906020018083116121d557829003601f168201915b5050505050905060006122036115ad565b90506000815114156122195781925050506123b5565b6000825111156122ea5780826040516020018083805190602001908083835b6020831061225b5780518252602082019150602081019050602083039250612238565b6001836020036101000a03801982511681845116808217855250505050505090500182805190602001908083835b602083106122ac5780518252602082019150602081019050602083039250612289565b6001836020036101000a03801982511681845116808217855250505050505090500192505050604051602081830303815290604052925050506123b5565b806122f485612cea565b6040516020018083805190602001908083835b6020831061232a5780518252602082019150602081019050602083039250612307565b6001836020036101000a03801982511681845116808217855250505050505090500182805190602001908083835b6020831061237b5780518252602082019150602081019050602083039250612358565b6001836020036101000a03801982511681845116808217855250505050505090500192505050604051602081830303815290604052925050505b919050565b600073ffffffffffffffffffffffffffffffffffffffff163373ffffffffffffffffffffffffffffffffffffffff1614156123f457600080fd5b600c60008154809291906001019190505550612411600c546127d4565b1561241b57600080fd5b600f8260405161242b9190614007565b908152602001604051809103902060009054906101000a900460ff161561245157600080fd5b600e836040516124619190614007565b908152602001604051809103902060009054906101000a900460ff161561248757600080fd5b61249333600c54612e31565b61249f600c5483613025565b6001600e846040516124b19190614007565b908152602001604051809103902060006101000a81548160ff0219169083151502179055506001600f836040516124e89190614007565b908152602001604051809103902060006101000a81548160ff0219169083151502179055506000604051806101000160405280600c5481526020018581526020018481526020013373ffffffffffffffffffffffffffffffffffffffff1681526020013373ffffffffffffffffffffffffffffffffffffffff1681526020018381526020016000815260200160011515815250905080600d6000600c5481526020019081526020016000206000820151816000015560208201518160010190805190602001906125b9929190613a9d565b5060408201518160020190805190602001906125d6929190613a9d565b5060608201518160030160006101000a81548173ffffffffffffffffffffffffffffffffffffffff021916908373ffffffffffffffffffffffffffffffffffffffff16021790555060808201518160040160006101000a81548173ffffffffffffffffffffffffffffffffffffffff021916908373ffffffffffffffffffffffffffffffffffffffff16021790555060a0820151816005015560c0820151816006015560e08201518160070160006101000a81548160ff02191690831515021790555090505050505050565b600a8054600181600116156101000203166002900480601f0160208091040260200160405190810160405280929190818152602001828054600181600116156101000203166002900480156127385780601f1061270d57610100808354040283529160200191612738565b820191906000526020600020905b81548152906001019060200180831161271b57829003601f168201915b505050505081565b6000600560008473ffffffffffffffffffffffffffffffffffffffff1673ffffffffffffffffffffffffffffffffffffffff16815260200190815260200160002060008373ffffffffffffffffffffffffffffffffffffffff1673ffffffffffffffffffffffffffffffffffffffff16815260200190815260200160002060009054906101000a900460ff16905092915050565b60006127ea8260026130af90919063ffffffff16565b9050919050565b600033905090565b816004600083815260200190815260200160002060006101000a81548173ffffffffffffffffffffffffffffffffffffffff021916908373ffffffffffffffffffffffffffffffffffffffff160217905550808273ffffffffffffffffffffffffffffffffffffffff1661286c8361155e565b73ffffffffffffffffffffffffffffffffffffffff167f8c5be1e5ebec7d5bd14f71427d1e84f3dd0314c0f7b2291e5b200ac8c7c3b92560405160405180910390a45050565b60006128c0826000016130c9565b9050919050565b60006128d2826127d4565b612927576040517f08c379a000000000000000000000000000000000000000000000000000000000815260040180806020018281038252602c8152602001806143ab602c913960400191505060405180910390fd5b60006129328361155e565b90508073ffffffffffffffffffffffffffffffffffffffff168473ffffffffffffffffffffffffffffffffffffffff1614806129a157508373ffffffffffffffffffffffffffffffffffffffff16612989846108ff565b73ffffffffffffffffffffffffffffffffffffffff16145b806129b257506129b18185612740565b5b91505092915050565b8273ffffffffffffffffffffffffffffffffffffffff166129db8261155e565b73ffffffffffffffffffffffffffffffffffffffff1614612a47576040517f08c379a00000000000000000000000000000000000000000000000000000000081526004018080602001828103825260298152602001806144dc6029913960400191505060405180910390fd5b600073ffffffffffffffffffffffffffffffffffffffff168273ffffffffffffffffffffffffffffffffffffffff161415612acd576040517f08c379a00000000000000000000000000000000000000000000000000000000081526004018080602001828103825260248152602001806143616024913960400191505060405180910390fd5b612ad88383836130da565b612ae36000826127f9565b612b3481600160008673ffffffffffffffffffffffffffffffffffffffff1673ffffffffffffffffffffffffffffffffffffffff1681526020019081526020016000206130df90919063ffffffff16565b50612b8681600160008573ffffffffffffffffffffffffffffffffffffffff1673ffffffffffffffffffffffffffffffffffffffff1681526020019081526020016000206130f990919063ffffffff16565b50612b9d818360026131139092919063ffffffff16565b50808273ffffffffffffffffffffffffffffffffffffffff168473ffffffffffffffffffffffffffffffffffffffff167fddf252ad1be2c89b69c2b068fc378daa952ba7f163c4a11628f55a4df523b3ef60405160405180910390a4505050565b6000612c0d8360000183613148565b60001c905092915050565b600080600080612c2b86600001866131cb565b915091508160001c8160001c9350935050509250929050565b6000612c57846000018460001b84613264565b60001c90509392505050565b6000612c718260000161335a565b9050919050565b612c838484846129bb565b612c8f8484848461336b565b612ce4576040517f08c379a000000000000000000000000000000000000000000000000000000000815260040180806020018281038252603281526020018061432f6032913960400191505060405180910390fd5b50505050565b60606000821415612d32576040518060400160405280600181526020017f30000000000000000000000000000000000000000000000000000000000000008152509050612e2c565b600082905060005b60008214612d5c578080600101915050600a8281612d5457fe5b049150612d3a565b60008167ffffffffffffffff81118015612d7557600080fd5b506040519080825280601f01601f191660200182016040528015612da85781602001600182028036833780820191505090505b50905060006001830390508593505b60008414612e2457600a8481612dc957fe5b0660300160f81b82828060019003935081518110612de357fe5b60200101907effffffffffffffffffffffffffffffffffffffffffffffffffffffffffffff1916908160001a905350600a8481612e1c57fe5b049350612db7565b819450505050505b919050565b600073ffffffffffffffffffffffffffffffffffffffff168273ffffffffffffffffffffffffffffffffffffffff161415612ed4576040517f08c379a00000000000000000000000000000000000000000000000000000000081526004018080602001828103825260208152602001807f4552433732313a206d696e7420746f20746865207a65726f206164647265737381525060200191505060405180910390fd5b612edd816127d4565b15612f50576040517f08c379a000000000000000000000000000000000000000000000000000000000815260040180806020018281038252601c8152602001807f4552433732313a20746f6b656e20616c7265616479206d696e7465640000000081525060200191505060405180910390fd5b612f5c600083836130da565b612fad81600160008573ffffffffffffffffffffffffffffffffffffffff1673ffffffffffffffffffffffffffffffffffffffff1681526020019081526020016000206130f990919063ffffffff16565b50612fc4818360026131139092919063ffffffff16565b50808273ffffffffffffffffffffffffffffffffffffffff16600073ffffffffffffffffffffffffffffffffffffffff167fddf252ad1be2c89b69c2b068fc378daa952ba7f163c4a11628f55a4df523b3ef60405160405180910390a45050565b61302e826127d4565b613083576040517f08c379a000000000000000000000000000000000000000000000000000000000815260040180806020018281038252602c8152602001806144b0602c913960400191505060405180910390fd5b806008600084815260200190815260200160002090805190602001906130aa929190613a9d565b505050565b60006130c1836000018360001b613584565b905092915050565b600081600001805490509050919050565b505050565b60006130f1836000018360001b6135a7565b905092915050565b600061310b836000018360001b61368f565b905092915050565b600061313f846000018460001b8473ffffffffffffffffffffffffffffffffffffffff1660001b6136ff565b90509392505050565b6000818360000180549050116131a9576040517f08c379a000000000000000000000000000000000000000000000000000000000815260040180806020018281038252602281526020018061430d6022913960400191505060405180910390fd5b8260000182815481106131b857fe5b9060005260206000200154905092915050565b6000808284600001805490501161322d576040517f08c379a00000000000000000000000000000000000000000000000000000000081526004018080602001828103825260228152602001806144626022913960400191505060405180910390fd5b600084600001848154811061323e57fe5b906000526020600020906002020190508060000154816001015492509250509250929050565b6000808460010160008581526020019081526020016000205490506000811415839061332b576040517f08c379a00000000000000000000000000000000000000000000000000000000081526004018080602001828103825283818151815260200191508051906020019080838360005b838110156132f05780820151818401526020810190506132d5565b50505050905090810190601f16801561331d5780820380516001836020036101000a031916815260200191505b509250505060405180910390fd5b5084600001600182038154811061333e57fe5b9060005260206000209060020201600101549150509392505050565b600081600001805490509050919050565b600061338c8473ffffffffffffffffffffffffffffffffffffffff166137db565b613399576001905061357c565b600061350363150b7a0260e01b6133ae6127f1565b888787604051602401808573ffffffffffffffffffffffffffffffffffffffff1681526020018473ffffffffffffffffffffffffffffffffffffffff16815260200183815260200180602001828103825283818151815260200191508051906020019080838360005b83811015613432578082015181840152602081019050613417565b50505050905090810190601f16801561345f5780820380516001836020036101000a031916815260200191505b5095505050505050604051602081830303815290604052907bffffffffffffffffffffffffffffffffffffffffffffffffffffffff19166020820180517bffffffffffffffffffffffffffffffffffffffffffffffffffffffff838183161783525050505060405180606001604052806032815260200161432f603291398773ffffffffffffffffffffffffffffffffffffffff166137ee9092919063ffffffff16565b9050600081806020019051602081101561351c57600080fd5b8101908080519060200190929190505050905063150b7a0260e01b7bffffffffffffffffffffffffffffffffffffffffffffffffffffffff1916817bffffffffffffffffffffffffffffffffffffffffffffffffffffffff191614925050505b949350505050565b600080836001016000848152602001908152602001600020541415905092915050565b6000808360010160008481526020019081526020016000205490506000811461368357600060018203905060006001866000018054905003905060008660000182815481106135f257fe5b906000526020600020015490508087600001848154811061360f57fe5b906000526020600020018190555060018301876001016000838152602001908152602001600020819055508660000180548061364757fe5b60019003818190600052602060002001600090559055866001016000878152602001908152602001600020600090556001945050505050613689565b60009150505b92915050565b600061369b8383613806565b6136f45782600001829080600181540180825580915050600190039060005260206000200160009091909190915055826000018054905083600101600084815260200190815260200160002081905550600190506136f9565b600090505b92915050565b60008084600101600085815260200190815260200160002054905060008114156137a6578460000160405180604001604052808681526020018581525090806001815401808255809150506001900390600052602060002090600202016000909190919091506000820151816000015560208201518160010155505084600001805490508560010160008681526020019081526020016000208190555060019150506137d4565b828560000160018303815481106137b957fe5b90600052602060002090600202016001018190555060009150505b9392505050565b600080823b905060008111915050919050565b60606137fd8484600085613829565b90509392505050565b600080836001016000848152602001908152602001600020541415905092915050565b606082471015613884576040517f08c379a00000000000000000000000000000000000000000000000000000000081526004018080602001828103825260268152602001806143856026913960400191505060405180910390fd5b61388d856137db565b6138ff576040517f08c379a000000000000000000000000000000000000000000000000000000000815260040180806020018281038252601d8152602001807f416464726573733a2063616c6c20746f206e6f6e2d636f6e747261637400000081525060200191505060405180910390fd5b6000808673ffffffffffffffffffffffffffffffffffffffff1685876040518082805190602001908083835b6020831061394e578051825260208201915060208101905060208303925061392b565b6001836020036101000a03801982511681845116808217855250505050505090500191505060006040518083038185875af1925050503d80600081146139b0576040519150601f19603f3d011682016040523d82523d6000602084013e6139b5565b606091505b50915091506139c58282866139d1565b92505050949350505050565b606083156139e157829050613a96565b6000835111156139f45782518084602001fd5b816040517f08c379a00000000000000000000000000000000000000000000000000000000081526004018080602001828103825283818151815260200191508051906020019080838360005b83811015613a5b578082015181840152602081019050613a40565b50505050905090810190601f168015613a885780820380516001836020036101000a031916815260200191505b509250505060405180910390fd5b9392505050565b828054600181600116156101000203166002900490600052602060002090601f016020900481019282613ad35760008555613b1a565b82601f10613aec57805160ff1916838001178555613b1a565b82800160010185558215613b1a579182015b82811115613b19578251825591602001919060010190613afe565b5b509050613b279190613b2b565b5090565b5b80821115613b44576000816000905550600101613b2c565b5090565b6000613b5b613b568461414e565b61411d565b905082815260208101848484011115613b7357600080fd5b613b7e84828561425b565b509392505050565b6000613b99613b948461417e565b61411d565b905082815260208101848484011115613bb157600080fd5b613bbc84828561425b565b509392505050565b600081359050613bd3816142b0565b92915050565b600081359050613be8816142c7565b92915050565b600081359050613bfd816142de565b92915050565b600082601f830112613c1457600080fd5b8135613c24848260208601613b48565b91505092915050565b600082601f830112613c3e57600080fd5b8135613c4e848260208601613b86565b91505092915050565b600081359050613c66816142f5565b92915050565b600060208284031215613c7e57600080fd5b6000613c8c84828501613bc4565b91505092915050565b60008060408385031215613ca857600080fd5b6000613cb685828601613bc4565b9250506020613cc785828601613bc4565b9150509250929050565b600080600060608486031215613ce657600080fd5b6000613cf486828701613bc4565b9350506020613d0586828701613bc4565b9250506040613d1686828701613c57565b9150509250925092565b60008060008060808587031215613d3657600080fd5b6000613d4487828801613bc4565b9450506020613d5587828801613bc4565b9350506040613d6687828801613c57565b925050606085013567ffffffffffffffff811115613d8357600080fd5b613d8f87828801613c03565b91505092959194509250565b60008060408385031215613dae57600080fd5b6000613dbc85828601613bc4565b9250506020613dcd85828601613bd9565b9150509250929050565b60008060408385031215613dea57600080fd5b6000613df885828601613bc4565b9250506020613e0985828601613c57565b9150509250929050565b600060208284031215613e2557600080fd5b6000613e3384828501613bee565b91505092915050565b600060208284031215613e4e57600080fd5b600082013567ffffffffffffffff811115613e6857600080fd5b613e7484828501613c2d565b91505092915050565b600080600060608486031215613e9257600080fd5b600084013567ffffffffffffffff811115613eac57600080fd5b613eb886828701613c2d565b935050602084013567ffffffffffffffff811115613ed557600080fd5b613ee186828701613c2d565b9250506040613ef286828701613c57565b9150509250925092565b600060208284031215613f0e57600080fd5b6000613f1c84828501613c57565b91505092915050565b60008060408385031215613f3857600080fd5b6000613f4685828601613c57565b9250506020613f5785828601613c57565b9150509250929050565b613f6a816141e7565b82525050565b613f79816141d5565b82525050565b613f88816141f9565b82525050565b6000613f99826141ae565b613fa381856141b9565b9350613fb381856020860161426a565b613fbc8161429f565b840191505092915050565b6000613fd2826141ae565b613fdc81856141ca565b9350613fec81856020860161426a565b80840191505092915050565b61400181614251565b82525050565b60006140138284613fc7565b915081905092915050565b60006020820190506140336000830184613f70565b92915050565b600060208201905061404e6000830184613f7f565b92915050565b6000602082019050818103600083015261406e8184613f8e565b905092915050565b600060208201905061408b6000830184613ff8565b92915050565b6000610100820190506140a7600083018b613ff8565b81810360208301526140b9818a613f8e565b905081810360408301526140cd8189613f8e565b90506140dc6060830188613f61565b6140e96080830187613f61565b6140f660a0830186613ff8565b61410360c0830185613ff8565b61411060e0830184613f7f565b9998505050505050505050565b6000604051905081810181811067ffffffffffffffff821117156141445761414361429d565b5b8060405250919050565b600067ffffffffffffffff8211156141695761416861429d565b5b601f19601f8301169050602081019050919050565b600067ffffffffffffffff8211156141995761419861429d565b5b601f19601f8301169050602081019050919050565b600081519050919050565b600082825260208201905092915050565b600081905092915050565b60006141e082614231565b9050919050565b60006141f282614231565b9050919050565b60008115159050919050565b60007fffffffff0000000000000000000000000000000000000000000000000000000082169050919050565b600073ffffffffffffffffffffffffffffffffffffffff82169050919050565b6000819050919050565b82818337600083830152505050565b60005b8381101561428857808201518184015260208101905061426d565b83811115614297576000848401525b50505050565bfe5b6000601f19601f8301169050919050565b6142b9816141d5565b81146142c457600080fd5b50565b6142d0816141f9565b81146142db57600080fd5b50565b6142e781614205565b81146142f257600080fd5b50565b6142fe81614251565b811461430957600080fd5b5056fe456e756d657261626c655365743a20696e646578206f7574206f6620626f756e64734552433732313a207472616e7366657220746f206e6f6e20455243373231526563656976657220696d706c656d656e7465724552433732313a207472616e7366657220746f20746865207a65726f2061646472657373416464726573733a20696e73756666696369656e742062616c616e636520666f722063616c6c4552433732313a206f70657261746f7220717565727920666f72206e6f6e6578697374656e7420746f6b656e4552433732313a20617070726f76652063616c6c6572206973206e6f74206f776e6572206e6f7220617070726f76656420666f7220616c6c4552433732313a2062616c616e636520717565727920666f7220746865207a65726f20616464726573734552433732313a206f776e657220717565727920666f72206e6f6e6578697374656e7420746f6b656e456e756d657261626c654d61703a20696e646578206f7574206f6620626f756e64734552433732313a20617070726f76656420717565727920666f72206e6f6e6578697374656e7420746f6b656e4552433732314d657461646174613a2055524920736574206f66206e6f6e6578697374656e7420746f6b656e4552433732313a207472616e73666572206f6620746f6b656e2074686174206973206e6f74206f776e4552433732314d657461646174613a2055524920717565727920666f72206e6f6e6578697374656e7420746f6b656e4552433732313a20617070726f76616c20746f2063757272656e74206f776e65724552433732313a207472616e736665722063616c6c6572206973206e6f74206f776e6572206e6f7220617070726f766564a2646970667358221220762e482857d33c139f4abc0651f203647f8dbc63eb546bbf9923e622640b4f1564736f6c63430007060033",
  "immutableReferences": {},
  "source": "// SPDX-License-Identifier: MIT\r\npragma solidity >=0.4.21 <0.8.0;\r\npragma abicoder v2;\r\n\r\nimport './ERC721.sol';\r\n\r\ncontract Xpoesys is ERC721 {\r\n    \r\n    struct Xpoesy {\r\n        uint256 tokenId;\r\n        string tokenName;\r\n        string tokenURI;\r\n        address payable mintedBy;\r\n        address payable currentOwner;\r\n        //address payable previousOwner;\r\n        uint256 price;\r\n        uint256 numberOfTransfers;\r\n        bool forsale;\r\n    }\r\n\r\n    string public collectionName;\r\n    string public collectionNameSymbol;\r\n    uint256 public xpCounter;\r\n\r\n    \r\n\r\n    mapping(uint256 => Xpoesy) public allXpoesy;\r\n    mapping(string => bool) public tokenNameExists;\r\n    mapping(string => bool) public tokenURIExists;\r\n\r\n    constructor() ERC721(\"Xpoesy\", \"XP\"){\r\n        collectionName = name();\r\n        collectionNameSymbol = symbol();\r\n    }\r\n\r\n    function mintXpoesy(string memory _name, string memory _tokenURI, uint256 _price) external {\r\n        require(msg.sender != address(0));\r\n        xpCounter ++;\r\n        require(!_exists(xpCounter));\r\n        require(!tokenURIExists[_tokenURI]);\r\n        require(!tokenNameExists[_name]);\r\n        _mint(msg.sender, xpCounter);\r\n        _setTokenURI(xpCounter, _tokenURI);\r\n        tokenNameExists[_name] = true;\r\n        tokenURIExists[_tokenURI] = true;\r\n        Xpoesy memory newXpoesy = Xpoesy(\r\n            xpCounter,\r\n            _name,\r\n            _tokenURI,\r\n            msg.sender,\r\n            msg.sender,\r\n            _price,\r\n            0,\r\n            true\r\n        );\r\n        allXpoesy[xpCounter] = newXpoesy;\r\n    }\r\n\r\n    function getTokenOwner(uint256 _tokenId) public view returns(address){\r\n        address _tokenOwner = ownerOf(_tokenId);\r\n        return _tokenOwner;\r\n    }\r\n\r\n    function getTokenMetaData(uint _tokenId) public view returns(string memory){\r\n        string memory tokenMetaData = tokenURI(_tokenId);\r\n        return tokenMetaData;\r\n    }\r\n\r\n    function getNumberOfTokenMinted() public view returns(uint256){\r\n        uint256 totalNumberOfTokenMinted = totalSupply();\r\n        return totalNumberOfTokenMinted;\r\n    }\r\n\r\n    function getTokenExists(uint256 _tokenId) public view returns(bool){\r\n        bool tokenExists = _exists(_tokenId);\r\n        return tokenExists;\r\n    }\r\n\r\n    function buyToken(uint _tokenId) public payable{\r\n        require(msg.sender != address(0));\r\n        require(_exists(_tokenId));\r\n        address tokenOwner = ownerOf(_tokenId);\r\n        require(tokenOwner != address(0));\r\n        require(tokenOwner != msg.sender);\r\n        Xpoesy memory xpoesy = allXpoesy[_tokenId];\r\n        require(msg.value >= xpoesy.price);\r\n        require(xpoesy.forsale);\r\n        _transfer(tokenOwner, msg.sender, _tokenId);\r\n        address payable sendTo = xpoesy.currentOwner;\r\n        sendTo.transfer(msg.value);\r\n        xpoesy.currentOwner = msg.sender;\r\n        xpoesy.numberOfTransfers += 1;\r\n        allXpoesy[_tokenId] = xpoesy;\r\n    }\r\n\r\n    function changeTokenPrice(uint256 _tokenId, uint256 _newPrice) public {\r\n        require(msg.sender != address(0));\r\n        require(_exists(_tokenId));\r\n        address tokenOwner = ownerOf(_tokenId);\r\n        require(msg.sender == tokenOwner);\r\n        Xpoesy memory xpoesy = allXpoesy[_tokenId];\r\n        xpoesy.price = _newPrice;\r\n        allXpoesy[_tokenId] = xpoesy;\r\n    }\r\n    \r\n    function toggleForSale(uint256 _tokenId) public {\r\n        require(msg.sender != address(0));\r\n        require(_exists(_tokenId));\r\n        address tokenOwner = ownerOf(_tokenId);\r\n        require(msg.sender == tokenOwner);\r\n        Xpoesy memory xpoesy = allXpoesy[_tokenId];\r\n        if(xpoesy.forsale){\r\n            xpoesy.forsale = false;\r\n        }else{\r\n            xpoesy.forsale = true;\r\n        }\r\n        allXpoesy[_tokenId] = xpoesy;\r\n    }\r\n}",
  "sourcePath": "D:\\Workspace\\Blockchain\\Xpoesy\\src\\contracts\\Xpoesys.sol",
  "compiler": {
    "name": "solc",
    "version": "0.7.6+commit.7338295f.Emscripten.clang"
  },
  "schemaVersion": "3.4.4",
  "updatedAt": "2022-02-05T07:29:02.334Z",
  "networkType": "ethereum",
  "devdoc": {
    "kind": "dev",
    "methods": {
      "approve(address,uint256)": {
        "details": "See {IERC721-approve}."
      },
      "balanceOf(address)": {
        "details": "See {IERC721-balanceOf}."
      },
      "baseURI()": {
        "details": "Returns the base URI set via {_setBaseURI}. This will be automatically added as a prefix in {tokenURI} to each token's URI, or to the token ID if no specific URI is set for that token ID."
      },
      "getApproved(uint256)": {
        "details": "See {IERC721-getApproved}."
      },
      "isApprovedForAll(address,address)": {
        "details": "See {IERC721-isApprovedForAll}."
      },
      "name()": {
        "details": "See {IERC721Metadata-name}."
      },
      "ownerOf(uint256)": {
        "details": "See {IERC721-ownerOf}."
      },
      "safeTransferFrom(address,address,uint256)": {
        "details": "See {IERC721-safeTransferFrom}."
      },
      "safeTransferFrom(address,address,uint256,bytes)": {
        "details": "See {IERC721-safeTransferFrom}."
      },
      "setApprovalForAll(address,bool)": {
        "details": "See {IERC721-setApprovalForAll}."
      },
      "supportsInterface(bytes4)": {
        "details": "See {IERC165-supportsInterface}. Time complexity O(1), guaranteed to always use less than 30 000 gas."
      },
      "symbol()": {
        "details": "See {IERC721Metadata-symbol}."
      },
      "tokenByIndex(uint256)": {
        "details": "See {IERC721Enumerable-tokenByIndex}."
      },
      "tokenOfOwnerByIndex(address,uint256)": {
        "details": "See {IERC721Enumerable-tokenOfOwnerByIndex}."
      },
      "tokenURI(uint256)": {
        "details": "See {IERC721Metadata-tokenURI}."
      },
      "totalSupply()": {
        "details": "See {IERC721Enumerable-totalSupply}."
      },
      "transferFrom(address,address,uint256)": {
        "details": "See {IERC721-transferFrom}."
      }
    },
    "version": 1
  },
  "userdoc": {
    "kind": "user",
    "methods": {},
    "version": 1
  }
}